{
  "_format": "hh-sol-artifact-1",
  "contractName": "camp",
  "sourceName": "contracts/lock.sol",
  "abi": [
    {
      "anonymous": false,
      "inputs": [
        {
          "indexed": false,
          "internalType": "string",
          "name": "Title",
          "type": "string"
        },
        {
          "indexed": false,
          "internalType": "uint256",
          "name": "RequiredAmount",
          "type": "uint256"
        },
        {
          "indexed": true,
          "internalType": "address",
          "name": "owner",
          "type": "address"
        },
        {
          "indexed": false,
          "internalType": "address",
          "name": "campaddress",
          "type": "address"
        },
        {
          "indexed": false,
          "internalType": "string",
          "name": "campImage",
          "type": "string"
        },
        {
          "indexed": true,
          "internalType": "uint256",
          "name": "timestamp",
          "type": "uint256"
        },
        {
          "indexed": false,
          "internalType": "string",
          "name": "category",
          "type": "string"
        }
      ],
      "name": "campcreated",
      "type": "event"
    },
    {
      "inputs": [
        {
          "internalType": "uint256",
          "name": "",
          "type": "uint256"
        }
      ],
      "name": "camper",
      "outputs": [
        {
          "internalType": "address",
          "name": "",
          "type": "address"
        }
      ],
      "stateMutability": "view",
      "type": "function"
    },
    {
      "inputs": [
        {
          "internalType": "string",
          "name": "campTitle",
          "type": "string"
        },
        {
          "internalType": "uint256",
          "name": "RequiredcampAmount",
          "type": "uint256"
        },
        {
          "internalType": "string",
          "name": "campImage",
          "type": "string"
        },
        {
          "internalType": "string",
          "name": "campStory",
          "type": "string"
        },
        {
          "internalType": "string",
          "name": "campcategory",
          "type": "string"
        }
      ],
      "name": "createcamp",
      "outputs": [],
      "stateMutability": "nonpayable",
      "type": "function"
    }
  ],
  "bytecode": "0x6080604052348015600f57600080fd5b506114ae8061001f6000396000f3fe608060405234801561001057600080fd5b50600436106100365760003560e01c806316df73b11461003b578063c97317b41461006b575b600080fd5b6100556004803603810190610050919061021f565b610087565b604051610062919061028d565b60405180910390f35b610085600480360381019061008091906103ee565b6100c6565b005b6000818154811061009757600080fd5b906000526020600020016000915054906101000a900473ffffffffffffffffffffffffffffffffffffffff1681565b600085858585336040516100d9906101c8565b6100e7959493929190610567565b604051809103906000f080158015610103573d6000803e3d6000fd5b509050423373ffffffffffffffffffffffffffffffffffffffff167f30efcb19c6ca6a732192f03e475448acb1281688d135b543ae8c00ef20b4db0388888589886040516101559594939291906105cf565b60405180910390a36000819080600181540180825580915050600190039060005260206000200160009091909190916101000a81548173ffffffffffffffffffffffffffffffffffffffff021916908373ffffffffffffffffffffffffffffffffffffffff160217905550505050505050565b610e418061063883390190565b6000604051905090565b600080fd5b600080fd5b6000819050919050565b6101fc816101e9565b811461020757600080fd5b50565b600081359050610219816101f3565b92915050565b600060208284031215610235576102346101df565b5b60006102438482850161020a565b91505092915050565b600073ffffffffffffffffffffffffffffffffffffffff82169050919050565b60006102778261024c565b9050919050565b6102878161026c565b82525050565b60006020820190506102a2600083018461027e565b92915050565b600080fd5b600080fd5b6000601f19601f8301169050919050565b7f4e487b7100000000000000000000000000000000000000000000000000000000600052604160045260246000fd5b6102fb826102b2565b810181811067ffffffffffffffff8211171561031a576103196102c3565b5b80604052505050565b600061032d6101d5565b905061033982826102f2565b919050565b600067ffffffffffffffff821115610359576103586102c3565b5b610362826102b2565b9050602081019050919050565b82818337600083830152505050565b600061039161038c8461033e565b610323565b9050828152602081018484840111156103ad576103ac6102ad565b5b6103b884828561036f565b509392505050565b600082601f8301126103d5576103d46102a8565b5b81356103e584826020860161037e565b91505092915050565b600080600080600060a0868803121561040a576104096101df565b5b600086013567ffffffffffffffff811115610428576104276101e4565b5b610434888289016103c0565b95505060206104458882890161020a565b945050604086013567ffffffffffffffff811115610466576104656101e4565b5b610472888289016103c0565b935050606086013567ffffffffffffffff811115610493576104926101e4565b5b61049f888289016103c0565b925050608086013567ffffffffffffffff8111156104c0576104bf6101e4565b5b6104cc888289016103c0565b9150509295509295909350565b600081519050919050565b600082825260208201905092915050565b60005b838110156105135780820151818401526020810190506104f8565b60008484015250505050565b600061052a826104d9565b61053481856104e4565b93506105448185602086016104f5565b61054d816102b2565b840191505092915050565b610561816101e9565b82525050565b600060a0820190508181036000830152610581818861051f565b90506105906020830187610558565b81810360408301526105a2818661051f565b905081810360608301526105b6818561051f565b90506105c5608083018461027e565b9695505050505050565b600060a08201905081810360008301526105e9818861051f565b90506105f86020830187610558565b610605604083018661027e565b8181036060830152610617818561051f565b9050818103608083015261062b818461051f565b9050969550505050505056fe608060405234801561001057600080fd5b50604051610e41380380610e41833981810160405281019061003291906102d0565b846000908161004191906105b6565b50670de0b6b3a76400008461005691906106b7565b600181905550826002908161006b91906105b6565b50816003908161007b91906105b6565b5080600460006101000a81548173ffffffffffffffffffffffffffffffffffffffff021916908373ffffffffffffffffffffffffffffffffffffffff16021790555050505050506106f9565b6000604051905090565b600080fd5b600080fd5b600080fd5b600080fd5b6000601f19601f8301169050919050565b7f4e487b7100000000000000000000000000000000000000000000000000000000600052604160045260246000fd5b61012e826100e5565b810181811067ffffffffffffffff8211171561014d5761014c6100f6565b5b80604052505050565b60006101606100c7565b905061016c8282610125565b919050565b600067ffffffffffffffff82111561018c5761018b6100f6565b5b610195826100e5565b9050602081019050919050565b60005b838110156101c05780820151818401526020810190506101a5565b60008484015250505050565b60006101df6101da84610171565b610156565b9050828152602081018484840111156101fb576101fa6100e0565b5b6102068482856101a2565b509392505050565b600082601f830112610223576102226100db565b5b81516102338482602086016101cc565b91505092915050565b6000819050919050565b61024f8161023c565b811461025a57600080fd5b50565b60008151905061026c81610246565b92915050565b600073ffffffffffffffffffffffffffffffffffffffff82169050919050565b600061029d82610272565b9050919050565b6102ad81610292565b81146102b857600080fd5b50565b6000815190506102ca816102a4565b92915050565b600080600080600060a086880312156102ec576102eb6100d1565b5b600086015167ffffffffffffffff81111561030a576103096100d6565b5b6103168882890161020e565b95505060206103278882890161025d565b945050604086015167ffffffffffffffff811115610348576103476100d6565b5b6103548882890161020e565b935050606086015167ffffffffffffffff811115610375576103746100d6565b5b6103818882890161020e565b9250506080610392888289016102bb565b9150509295509295909350565b600081519050919050565b7f4e487b7100000000000000000000000000000000000000000000000000000000600052602260045260246000fd5b600060028204905060018216806103f157607f821691505b602082108103610404576104036103aa565b5b50919050565b60008190508160005260206000209050919050565b60006020601f8301049050919050565b600082821b905092915050565b60006008830261046c7fffffffffffffffffffffffffffffffffffffffffffffffffffffffffffffffff8261042f565b610476868361042f565b95508019841693508086168417925050509392505050565b6000819050919050565b60006104b36104ae6104a98461023c565b61048e565b61023c565b9050919050565b6000819050919050565b6104cd83610498565b6104e16104d9826104ba565b84845461043c565b825550505050565b600090565b6104f66104e9565b6105018184846104c4565b505050565b5b818110156105255761051a6000826104ee565b600181019050610507565b5050565b601f82111561056a5761053b8161040a565b6105448461041f565b81016020851015610553578190505b61056761055f8561041f565b830182610506565b50505b505050565b600082821c905092915050565b600061058d6000198460080261056f565b1980831691505092915050565b60006105a6838361057c565b9150826002028217905092915050565b6105bf8261039f565b67ffffffffffffffff8111156105d8576105d76100f6565b5b6105e282546103d9565b6105ed828285610529565b600060209050601f831160018114610620576000841561060e578287015190505b610618858261059a565b865550610680565b601f19841661062e8661040a565b60005b8281101561065657848901518255600182019150602085019450602081019050610631565b86831015610673578489015161066f601f89168261057c565b8355505b6001600288020188555050505b505050505050565b7f4e487b7100000000000000000000000000000000000000000000000000000000600052601160045260246000fd5b60006106c28261023c565b91506106cd8361023c565b92508282026106db8161023c565b915082820484148315176106f2576106f1610688565b5b5092915050565b610739806107086000396000f3fe6080604052600436106100705760003560e01c8063a6b70c1d1161004e578063a6b70c1d146100f6578063b87f040414610121578063e5123aaa1461014c578063ed88c68e1461017757610070565b80631cddb05b146100755780638da5cb5b146100a05780639aa10ebf146100cb575b600080fd5b34801561008157600080fd5b5061008a610181565b6040516100979190610485565b60405180910390f35b3480156100ac57600080fd5b506100b5610187565b6040516100c291906104e1565b60405180910390f35b3480156100d757600080fd5b506100e06101ad565b6040516100ed919061058c565b60405180910390f35b34801561010257600080fd5b5061010b61023b565b6040516101189190610485565b60405180910390f35b34801561012d57600080fd5b50610136610241565b604051610143919061058c565b60405180910390f35b34801561015857600080fd5b506101616102cf565b60405161016e919061058c565b60405180910390f35b61017f61035d565b005b60055481565b600460009054906101000a900473ffffffffffffffffffffffffffffffffffffffff1681565b600380546101ba906105dd565b80601f01602080910402602001604051908101604052809291908181526020018280546101e6906105dd565b80156102335780601f1061020857610100808354040283529160200191610233565b820191906000526020600020905b81548152906001019060200180831161021657829003601f168201915b505050505081565b60015481565b6000805461024e906105dd565b80601f016020809104026020016040519081016040528092919081815260200182805461027a906105dd565b80156102c75780601f1061029c576101008083540402835291602001916102c7565b820191906000526020600020905b8154815290600101906020018083116102aa57829003601f168201915b505050505081565b600280546102dc906105dd565b80601f0160208091040260200160405190810160405280929190818152602001828054610308906105dd565b80156103555780601f1061032a57610100808354040283529160200191610355565b820191906000526020600020905b81548152906001019060200180831161033857829003601f168201915b505050505081565b600554600154116103a3576040517f08c379a000000000000000000000000000000000000000000000000000000000815260040161039a90610680565b60405180910390fd5b600460009054906101000a900473ffffffffffffffffffffffffffffffffffffffff1673ffffffffffffffffffffffffffffffffffffffff166108fc349081150290604051600060405180830381858888f1935050505015801561040b573d6000803e3d6000fd5b50346005600082825461041e91906106cf565b9250508190555042343373ffffffffffffffffffffffffffffffffffffffff167fe6add99d06d9ad7fc456e746aa162eed6211c5002ef2dacdd67b8d2016822fba60405160405180910390a4565b6000819050919050565b61047f8161046c565b82525050565b600060208201905061049a6000830184610476565b92915050565b600073ffffffffffffffffffffffffffffffffffffffff82169050919050565b60006104cb826104a0565b9050919050565b6104db816104c0565b82525050565b60006020820190506104f660008301846104d2565b92915050565b600081519050919050565b600082825260208201905092915050565b60005b8381101561053657808201518184015260208101905061051b565b60008484015250505050565b6000601f19601f8301169050919050565b600061055e826104fc565b6105688185610507565b9350610578818560208601610518565b61058181610542565b840191505092915050565b600060208201905081810360008301526105a68184610553565b905092915050565b7f4e487b7100000000000000000000000000000000000000000000000000000000600052602260045260246000fd5b600060028204905060018216806105f557607f821691505b602082108103610608576106076105ae565b5b50919050565b7f526571756972656420416d6f756e7420686173206265656e2046756c66696c6c60008201527f6564000000000000000000000000000000000000000000000000000000000000602082015250565b600061066a602283610507565b91506106758261060e565b604082019050919050565b600060208201905081810360008301526106998161065d565b9050919050565b7f4e487b7100000000000000000000000000000000000000000000000000000000600052601160045260246000fd5b60006106da8261046c565b91506106e58361046c565b92508282019050808211156106fd576106fc6106a0565b5b9291505056fea2646970667358221220c2acc42e128dde61275c56ce531483143cdbd271957e5563c0633398488e2dfe64736f6c634300081c0033a2646970667358221220ffe28ee1f3fa85b4c5ded9d369071695f2f35fddb83e364922d16aa12313c15664736f6c634300081c0033",
  "linkReferences": {},
  "deployedLinkReferences": {}
}