{
  "_format": "hh-sol-artifact-1",
  "contractName": "Pro",
  "sourceName": "contracts/lock.sol",
  "abi": [
    {
      "inputs": [
        {
          "internalType": "string",
          "name": "_Title",
          "type": "string"
        },
        {
          "internalType": "uint256",
          "name": "_RequiredAmount",
          "type": "uint256"
        },
        {
          "internalType": "string",
          "name": "_Image",
          "type": "string"
        },
        {
          "internalType": "string",
          "name": "_Story",
          "type": "string"
        },
        {
          "internalType": "address",
          "name": "campaignOwner",
          "type": "address"
        }
      ],
      "stateMutability": "nonpayable",
      "type": "constructor"
    },
    {
      "anonymous": false,
      "inputs": [
        {
          "indexed": true,
          "internalType": "address",
          "name": "donar",
          "type": "address"
        },
        {
          "indexed": true,
          "internalType": "uint256",
          "name": "Amount",
          "type": "uint256"
        },
        {
          "indexed": true,
          "internalType": "uint256",
          "name": "timestamp",
          "type": "uint256"
        }
      ],
      "name": "donated",
      "type": "event"
    },
    {
      "inputs": [],
      "name": "Image",
      "outputs": [
        {
          "internalType": "string",
          "name": "",
          "type": "string"
        }
      ],
      "stateMutability": "view",
      "type": "function"
    },
    {
      "inputs": [],
      "name": "ReceivedAmount",
      "outputs": [
        {
          "internalType": "uint256",
          "name": "",
          "type": "uint256"
        }
      ],
      "stateMutability": "view",
      "type": "function"
    },
    {
      "inputs": [],
      "name": "RequiredAmount",
      "outputs": [
        {
          "internalType": "uint256",
          "name": "",
          "type": "uint256"
        }
      ],
      "stateMutability": "view",
      "type": "function"
    },
    {
      "inputs": [],
      "name": "Story",
      "outputs": [
        {
          "internalType": "string",
          "name": "",
          "type": "string"
        }
      ],
      "stateMutability": "view",
      "type": "function"
    },
    {
      "inputs": [],
      "name": "Title",
      "outputs": [
        {
          "internalType": "string",
          "name": "",
          "type": "string"
        }
      ],
      "stateMutability": "view",
      "type": "function"
    },
    {
      "inputs": [],
      "name": "donate",
      "outputs": [],
      "stateMutability": "payable",
      "type": "function"
    },
    {
      "inputs": [],
      "name": "owner",
      "outputs": [
        {
          "internalType": "address payable",
          "name": "",
          "type": "address"
        }
      ],
      "stateMutability": "view",
      "type": "function"
    }
  ],
  "bytecode": "0x608060405234801561001057600080fd5b50604051610e41380380610e41833981810160405281019061003291906102d0565b846000908161004191906105b6565b50670de0b6b3a76400008461005691906106b7565b600181905550826002908161006b91906105b6565b50816003908161007b91906105b6565b5080600460006101000a81548173ffffffffffffffffffffffffffffffffffffffff021916908373ffffffffffffffffffffffffffffffffffffffff16021790555050505050506106f9565b6000604051905090565b600080fd5b600080fd5b600080fd5b600080fd5b6000601f19601f8301169050919050565b7f4e487b7100000000000000000000000000000000000000000000000000000000600052604160045260246000fd5b61012e826100e5565b810181811067ffffffffffffffff8211171561014d5761014c6100f6565b5b80604052505050565b60006101606100c7565b905061016c8282610125565b919050565b600067ffffffffffffffff82111561018c5761018b6100f6565b5b610195826100e5565b9050602081019050919050565b60005b838110156101c05780820151818401526020810190506101a5565b60008484015250505050565b60006101df6101da84610171565b610156565b9050828152602081018484840111156101fb576101fa6100e0565b5b6102068482856101a2565b509392505050565b600082601f830112610223576102226100db565b5b81516102338482602086016101cc565b91505092915050565b6000819050919050565b61024f8161023c565b811461025a57600080fd5b50565b60008151905061026c81610246565b92915050565b600073ffffffffffffffffffffffffffffffffffffffff82169050919050565b600061029d82610272565b9050919050565b6102ad81610292565b81146102b857600080fd5b50565b6000815190506102ca816102a4565b92915050565b600080600080600060a086880312156102ec576102eb6100d1565b5b600086015167ffffffffffffffff81111561030a576103096100d6565b5b6103168882890161020e565b95505060206103278882890161025d565b945050604086015167ffffffffffffffff811115610348576103476100d6565b5b6103548882890161020e565b935050606086015167ffffffffffffffff811115610375576103746100d6565b5b6103818882890161020e565b9250506080610392888289016102bb565b9150509295509295909350565b600081519050919050565b7f4e487b7100000000000000000000000000000000000000000000000000000000600052602260045260246000fd5b600060028204905060018216806103f157607f821691505b602082108103610404576104036103aa565b5b50919050565b60008190508160005260206000209050919050565b60006020601f8301049050919050565b600082821b905092915050565b60006008830261046c7fffffffffffffffffffffffffffffffffffffffffffffffffffffffffffffffff8261042f565b610476868361042f565b95508019841693508086168417925050509392505050565b6000819050919050565b60006104b36104ae6104a98461023c565b61048e565b61023c565b9050919050565b6000819050919050565b6104cd83610498565b6104e16104d9826104ba565b84845461043c565b825550505050565b600090565b6104f66104e9565b6105018184846104c4565b505050565b5b818110156105255761051a6000826104ee565b600181019050610507565b5050565b601f82111561056a5761053b8161040a565b6105448461041f565b81016020851015610553578190505b61056761055f8561041f565b830182610506565b50505b505050565b600082821c905092915050565b600061058d6000198460080261056f565b1980831691505092915050565b60006105a6838361057c565b9150826002028217905092915050565b6105bf8261039f565b67ffffffffffffffff8111156105d8576105d76100f6565b5b6105e282546103d9565b6105ed828285610529565b600060209050601f831160018114610620576000841561060e578287015190505b610618858261059a565b865550610680565b601f19841661062e8661040a565b60005b8281101561065657848901518255600182019150602085019450602081019050610631565b86831015610673578489015161066f601f89168261057c565b8355505b6001600288020188555050505b505050505050565b7f4e487b7100000000000000000000000000000000000000000000000000000000600052601160045260246000fd5b60006106c28261023c565b91506106cd8361023c565b92508282026106db8161023c565b915082820484148315176106f2576106f1610688565b5b5092915050565b610739806107086000396000f3fe6080604052600436106100705760003560e01c8063a6b70c1d1161004e578063a6b70c1d146100f6578063b87f040414610121578063e5123aaa1461014c578063ed88c68e1461017757610070565b80631cddb05b146100755780638da5cb5b146100a05780639aa10ebf146100cb575b600080fd5b34801561008157600080fd5b5061008a610181565b6040516100979190610485565b60405180910390f35b3480156100ac57600080fd5b506100b5610187565b6040516100c291906104e1565b60405180910390f35b3480156100d757600080fd5b506100e06101ad565b6040516100ed919061058c565b60405180910390f35b34801561010257600080fd5b5061010b61023b565b6040516101189190610485565b60405180910390f35b34801561012d57600080fd5b50610136610241565b604051610143919061058c565b60405180910390f35b34801561015857600080fd5b506101616102cf565b60405161016e919061058c565b60405180910390f35b61017f61035d565b005b60055481565b600460009054906101000a900473ffffffffffffffffffffffffffffffffffffffff1681565b600380546101ba906105dd565b80601f01602080910402602001604051908101604052809291908181526020018280546101e6906105dd565b80156102335780601f1061020857610100808354040283529160200191610233565b820191906000526020600020905b81548152906001019060200180831161021657829003601f168201915b505050505081565b60015481565b6000805461024e906105dd565b80601f016020809104026020016040519081016040528092919081815260200182805461027a906105dd565b80156102c75780601f1061029c576101008083540402835291602001916102c7565b820191906000526020600020905b8154815290600101906020018083116102aa57829003601f168201915b505050505081565b600280546102dc906105dd565b80601f0160208091040260200160405190810160405280929190818152602001828054610308906105dd565b80156103555780601f1061032a57610100808354040283529160200191610355565b820191906000526020600020905b81548152906001019060200180831161033857829003601f168201915b505050505081565b600554600154116103a3576040517f08c379a000000000000000000000000000000000000000000000000000000000815260040161039a90610680565b60405180910390fd5b600460009054906101000a900473ffffffffffffffffffffffffffffffffffffffff1673ffffffffffffffffffffffffffffffffffffffff166108fc349081150290604051600060405180830381858888f1935050505015801561040b573d6000803e3d6000fd5b50346005600082825461041e91906106cf565b9250508190555042343373ffffffffffffffffffffffffffffffffffffffff167fe6add99d06d9ad7fc456e746aa162eed6211c5002ef2dacdd67b8d2016822fba60405160405180910390a4565b6000819050919050565b61047f8161046c565b82525050565b600060208201905061049a6000830184610476565b92915050565b600073ffffffffffffffffffffffffffffffffffffffff82169050919050565b60006104cb826104a0565b9050919050565b6104db816104c0565b82525050565b60006020820190506104f660008301846104d2565b92915050565b600081519050919050565b600082825260208201905092915050565b60005b8381101561053657808201518184015260208101905061051b565b60008484015250505050565b6000601f19601f8301169050919050565b600061055e826104fc565b6105688185610507565b9350610578818560208601610518565b61058181610542565b840191505092915050565b600060208201905081810360008301526105a68184610553565b905092915050565b7f4e487b7100000000000000000000000000000000000000000000000000000000600052602260045260246000fd5b600060028204905060018216806105f557607f821691505b602082108103610608576106076105ae565b5b50919050565b7f526571756972656420416d6f756e7420686173206265656e2046756c66696c6c60008201527f6564000000000000000000000000000000000000000000000000000000000000602082015250565b600061066a602283610507565b91506106758261060e565b604082019050919050565b600060208201905081810360008301526106998161065d565b9050919050565b7f4e487b7100000000000000000000000000000000000000000000000000000000600052601160045260246000fd5b60006106da8261046c565b91506106e58361046c565b92508282019050808211156106fd576106fc6106a0565b5b9291505056fea2646970667358221220c2acc42e128dde61275c56ce531483143cdbd271957e5563c0633398488e2dfe64736f6c634300081c0033",
  "linkReferences": {},
  "deployedLinkReferences": {}
}