{
  "_format": "hh-sol-artifact-1",
  "contractName": "Pro",
  "sourceName": "contracts/lock.sol",
  "abi": [
    {
      "inputs": [
        {
          "internalType": "string",
          "name": "_Title",
          "type": "string"
        },
        {
          "internalType": "uint256",
          "name": "_RequiredAmount",
          "type": "uint256"
        },
        {
          "internalType": "string",
          "name": "_Image",
          "type": "string"
        },
        {
          "internalType": "string",
          "name": "_Story",
          "type": "string"
        },
        {
          "internalType": "address",
          "name": "campaignOwner",
          "type": "address"
        }
      ],
      "stateMutability": "nonpayable",
      "type": "constructor"
    },
    {
      "anonymous": false,
      "inputs": [
        {
          "indexed": true,
          "internalType": "address",
          "name": "donar",
          "type": "address"
        },
        {
          "indexed": true,
          "internalType": "uint256",
          "name": "Amount",
          "type": "uint256"
        },
        {
          "indexed": true,
          "internalType": "uint256",
          "name": "timestamp",
          "type": "uint256"
        }
      ],
      "name": "donated",
      "type": "event"
    },
    {
      "inputs": [],
      "name": "Image",
      "outputs": [
        {
          "internalType": "string",
          "name": "",
          "type": "string"
        }
      ],
      "stateMutability": "view",
      "type": "function"
    },
    {
      "inputs": [],
      "name": "ReceivedAmount",
      "outputs": [
        {
          "internalType": "uint256",
          "name": "",
          "type": "uint256"
        }
      ],
      "stateMutability": "view",
      "type": "function"
    },
    {
      "inputs": [],
      "name": "RequiredAmount",
      "outputs": [
        {
          "internalType": "uint256",
          "name": "",
          "type": "uint256"
        }
      ],
      "stateMutability": "view",
      "type": "function"
    },
    {
      "inputs": [],
      "name": "Story",
      "outputs": [
        {
          "internalType": "string",
          "name": "",
          "type": "string"
        }
      ],
      "stateMutability": "view",
      "type": "function"
    },
    {
      "inputs": [],
      "name": "Title",
      "outputs": [
        {
          "internalType": "string",
          "name": "",
          "type": "string"
        }
      ],
      "stateMutability": "view",
      "type": "function"
    },
    {
      "inputs": [],
      "name": "donate",
      "outputs": [],
      "stateMutability": "payable",
      "type": "function"
    },
    {
      "inputs": [],
      "name": "owner",
      "outputs": [
        {
          "internalType": "address payable",
          "name": "",
          "type": "address"
        }
      ],
      "stateMutability": "view",
      "type": "function"
    }
  ],
  "bytecode": "0x60c060405234801561001057600080fd5b50604051610e91380380610e91833981810160405281019061003291906102c4565b846000908161004191906105aa565b50670de0b6b3a76400008461005691906106ab565b60808181525050826001908161006c91906105aa565b50816002908161007c91906105aa565b508073ffffffffffffffffffffffffffffffffffffffff1660a08173ffffffffffffffffffffffffffffffffffffffff168152505050505050506106ed565b6000604051905090565b600080fd5b600080fd5b600080fd5b600080fd5b6000601f19601f8301169050919050565b7f4e487b7100000000000000000000000000000000000000000000000000000000600052604160045260246000fd5b610122826100d9565b810181811067ffffffffffffffff82111715610141576101406100ea565b5b80604052505050565b60006101546100bb565b90506101608282610119565b919050565b600067ffffffffffffffff8211156101805761017f6100ea565b5b610189826100d9565b9050602081019050919050565b60005b838110156101b4578082015181840152602081019050610199565b60008484015250505050565b60006101d36101ce84610165565b61014a565b9050828152602081018484840111156101ef576101ee6100d4565b5b6101fa848285610196565b509392505050565b600082601f830112610217576102166100cf565b5b81516102278482602086016101c0565b91505092915050565b6000819050919050565b61024381610230565b811461024e57600080fd5b50565b6000815190506102608161023a565b92915050565b600073ffffffffffffffffffffffffffffffffffffffff82169050919050565b600061029182610266565b9050919050565b6102a181610286565b81146102ac57600080fd5b50565b6000815190506102be81610298565b92915050565b600080600080600060a086880312156102e0576102df6100c5565b5b600086015167ffffffffffffffff8111156102fe576102fd6100ca565b5b61030a88828901610202565b955050602061031b88828901610251565b945050604086015167ffffffffffffffff81111561033c5761033b6100ca565b5b61034888828901610202565b935050606086015167ffffffffffffffff811115610369576103686100ca565b5b61037588828901610202565b9250506080610386888289016102af565b9150509295509295909350565b600081519050919050565b7f4e487b7100000000000000000000000000000000000000000000000000000000600052602260045260246000fd5b600060028204905060018216806103e557607f821691505b6020821081036103f8576103f761039e565b5b50919050565b60008190508160005260206000209050919050565b60006020601f8301049050919050565b600082821b905092915050565b6000600883026104607fffffffffffffffffffffffffffffffffffffffffffffffffffffffffffffffff82610423565b61046a8683610423565b95508019841693508086168417925050509392505050565b6000819050919050565b60006104a76104a261049d84610230565b610482565b610230565b9050919050565b6000819050919050565b6104c18361048c565b6104d56104cd826104ae565b848454610430565b825550505050565b600090565b6104ea6104dd565b6104f58184846104b8565b505050565b5b818110156105195761050e6000826104e2565b6001810190506104fb565b5050565b601f82111561055e5761052f816103fe565b61053884610413565b81016020851015610547578190505b61055b61055385610413565b8301826104fa565b50505b505050565b600082821c905092915050565b600061058160001984600802610563565b1980831691505092915050565b600061059a8383610570565b9150826002028217905092915050565b6105b382610393565b67ffffffffffffffff8111156105cc576105cb6100ea565b5b6105d682546103cd565b6105e182828561051d565b600060209050601f8311600181146106145760008415610602578287015190505b61060c858261058e565b865550610674565b601f198416610622866103fe565b60005b8281101561064a57848901518255600182019150602085019450602081019050610625565b868310156106675784890151610663601f891682610570565b8355505b6001600288020188555050505b505050505050565b7f4e487b7100000000000000000000000000000000000000000000000000000000600052601160045260246000fd5b60006106b682610230565b91506106c183610230565b92508282026106cf81610230565b915082820484148315176106e6576106e561067c565b5b5092915050565b60805160a0516107716107206000396000818161018901526103df01526000818161023b015261037b01526107716000f3fe6080604052600436106100705760003560e01c8063a6b70c1d1161004e578063a6b70c1d146100f6578063b87f040414610121578063e5123aaa1461014c578063ed88c68e1461017757610070565b80631cddb05b146100755780638da5cb5b146100a05780639aa10ebf146100cb575b600080fd5b34801561008157600080fd5b5061008a610181565b60405161009791906104bd565b60405180910390f35b3480156100ac57600080fd5b506100b5610187565b6040516100c29190610519565b60405180910390f35b3480156100d757600080fd5b506100e06101ab565b6040516100ed91906105c4565b60405180910390f35b34801561010257600080fd5b5061010b610239565b60405161011891906104bd565b60405180910390f35b34801561012d57600080fd5b5061013661025d565b60405161014391906105c4565b60405180910390f35b34801561015857600080fd5b506101616102eb565b60405161016e91906105c4565b60405180910390f35b61017f610379565b005b60035481565b7f000000000000000000000000000000000000000000000000000000000000000081565b600280546101b890610615565b80601f01602080910402602001604051908101604052809291908181526020018280546101e490610615565b80156102315780601f1061020657610100808354040283529160200191610231565b820191906000526020600020905b81548152906001019060200180831161021457829003601f168201915b505050505081565b7f000000000000000000000000000000000000000000000000000000000000000081565b6000805461026a90610615565b80601f016020809104026020016040519081016040528092919081815260200182805461029690610615565b80156102e35780601f106102b8576101008083540402835291602001916102e3565b820191906000526020600020905b8154815290600101906020018083116102c657829003601f168201915b505050505081565b600180546102f890610615565b80601f016020809104026020016040519081016040528092919081815260200182805461032490610615565b80156103715780601f1061034657610100808354040283529160200191610371565b820191906000526020600020905b81548152906001019060200180831161035457829003601f168201915b505050505081565b7f0000000000000000000000000000000000000000000000000000000000000000600354106103dd576040517f08c379a00000000000000000000000000000000000000000000000000000000081526004016103d4906106b8565b60405180910390fd5b7f000000000000000000000000000000000000000000000000000000000000000073ffffffffffffffffffffffffffffffffffffffff166108fc349081150290604051600060405180830381858888f19350505050158015610443573d6000803e3d6000fd5b5034600360008282546104569190610707565b9250508190555042343373ffffffffffffffffffffffffffffffffffffffff167fe6add99d06d9ad7fc456e746aa162eed6211c5002ef2dacdd67b8d2016822fba60405160405180910390a4565b6000819050919050565b6104b7816104a4565b82525050565b60006020820190506104d260008301846104ae565b92915050565b600073ffffffffffffffffffffffffffffffffffffffff82169050919050565b6000610503826104d8565b9050919050565b610513816104f8565b82525050565b600060208201905061052e600083018461050a565b92915050565b600081519050919050565b600082825260208201905092915050565b60005b8381101561056e578082015181840152602081019050610553565b60008484015250505050565b6000601f19601f8301169050919050565b600061059682610534565b6105a0818561053f565b93506105b0818560208601610550565b6105b98161057a565b840191505092915050565b600060208201905081810360008301526105de818461058b565b905092915050565b7f4e487b7100000000000000000000000000000000000000000000000000000000600052602260045260246000fd5b6000600282049050600182168061062d57607f821691505b6020821081036106405761063f6105e6565b5b50919050565b7f526571756972656420416d6f756e7420686173206265656e2066756c66696c6c60008201527f6564000000000000000000000000000000000000000000000000000000000000602082015250565b60006106a260228361053f565b91506106ad82610646565b604082019050919050565b600060208201905081810360008301526106d181610695565b9050919050565b7f4e487b7100000000000000000000000000000000000000000000000000000000600052601160045260246000fd5b6000610712826104a4565b915061071d836104a4565b9250828201905080821115610735576107346106d8565b5b9291505056fea2646970667358221220bffdb752321d8c37a61600a522aa986c8544e2130b8aa48fc51c7adce6360b2c64736f6c634300081c0033",
  "linkReferences": {},
  "deployedLinkReferences": {}
}